:100000000C9401020C9429020C9429020C942902EC
:100010000C9429020C9429020C9429020C942902B4
:100020000C9429020C9429020C9429020C942902A4
:100030000C9429020C9429020C9429020C94290294
:100040000C9429020C9429020C9429020C94290284
:100050000C9429020C9429020C9429020C94290274
:100060000C9429020C9429020000000000000000FA
:1000700004040404000400000A0A0A00000000004E
:100080000A0A1F0A1F0A0A00040F140E051E0400A4
:1000900018190204081303000C12140814120D009E
:1000A0000C04080000000000020408080804020014
:1000B00008040202020408000004150E15040000E2
:1000C0000004041F04040000000000000C040800E9
:1000D0000000001F0000000000000000000C0C00E9
:1000E00000010204081000000E11131519110E0072
:1000F000040C040404040E000E11010204081F0085
:100100001F02040201110E0002060A121F02020061
:100110001F101E0101110E000608101E11110E0005
:100120001F010204080808000E11110E11110E0023
:100130000E11110F01020C00000102040810000052
:10014000000C0C000C040800020408100804020053
:1001500000001F001F000000080402010204080044
:100160000E110102040004000E11010D15150E0000
:100170000E1111111F1111001E11111E11111E005F
:100180000E11101010110E001C12111111121C0072
:100190001F10101E10101F001F10101E1010100036
:1001A0000E11101711110E001111111F1111110054
:1001B0000E04040404040E000702020202120C00E2
:1001C00011121418141211001010101010101F002A
:1001D000111B151511111100111119151311110011
:1001E0000E11111111110E001E11111E1010100010
:1001F0000E11111115120D001E11111E14121100F5
:100200000F10100E01011E001F040404040404005A
:100210001111111111110E0011111111110A040007
:100220001111111115150E0011110A040A111100F6
:100230001111110A040404001F01020408101F0018
:100240000E08080808080E00110A1F041F04040005
:100250000E02020202020E00040A11000000000059
:100260000000000000001F00080400000000000063
:1002700000000E010F110F0010101E1111111E00B1
:1002800000000E1010110E0001010D1311110F00CE
:1002900000000E111F100E000609081C08080800B7
:1002A000000F11110F010E0010101619111111007D
:1002B00004000C0404040E000200060202120C00EA
:1002C00010101214181412001808080808081C004E
:1002D00000001A1515111100000016191111110056
:1002E00000000E1111110E0000001E111E10100052
:1002F00000000F110F01010000001619101010006E
:1003000000000E100E011E0008081C080809060057
:100310000000111111130D0000001111110A040049
:100320000000111111150A000000110A040A110041
:10033000000011110F010E0000001F0204081F0031
:1003400000000000000000000000000000000000AD
:10035000000000000000000000000000000000009D
:100360000000000007C00FE00C6018301830183093
:100370001830183018300C600FE007C00000000083
:100380000000000003800380018001800180018063
:10039000018001800180018003C003C000000000D3
:1003A0000000000007F007F0014003600360063022
:1003B00007F00FF80C180C183E3E3E3E00000000FF
:1003C000000000000FE00FF00630063007E007F0F5
:1003D00006380618061806380FF00FE00000000077
:1003E0000000000007D80FF81C3838183000300023
:1003F00030003008380C1C380FF007E00000000017
:10040000020811241FBECFEFD8E0DEBFCDBF11E040
:10041000A0E0B1E0E6E0F6E102C005900D92A43163
:10042000B107D9F721E0A4E1B1E001C01D92A832E3
:10043000B207E1F712E0C1E0D2E004C02197FE016B
:100440000E94EC0AC030D107C9F70E948E070C94B5
:10045000010B0C9400009BB19370282F2C7F922BE2
:100460009BB995B19C7F8370892B85B9089599B10B
:100470009C7F83B18370892B089515B81BB883E0E6
:1004800084B98CEF84B98FE187B9089598B19B7FC7
:1004900098B998B1916098B998B1977F98B90E942E
:1004A0002B0288B18D7F88B988B1826088B988B104
:1004B000886088B9089598B1946098B998B19160AE
:1004C00098B998B1977F98B90E942B0288B18D7F17
:1004D00088B988B1826088B988B1886088B9089580
:1004E0000E942B0288B18D7F88B988B1826088B95B
:1004F0000895CF92DF92EF92FF92CF93C82F88B1E9
:10050000877F88B988B18B7F88B98C2F0E94700251
:1005100083E08AB98CEF84B988B1846088B987ECAC
:1005200090E00197F1F700C0000088B18E7F88B994
:100530009AE19A95F1F700C00E943702C82E88B15F
:10054000816088B9D12CE12CF12CFE2CED2CDC2C17
:10055000CC2488B18E7F88B9EAE1EA95F1F700C032
:100560000E94370298B1916098B9C82AFE2CED2CF0
:10057000DC2CCC2488B18E7F88B9FAE1FA95F1F7AA
:1005800000C00E94370298B1916098B9C82AFE2C29
:10059000ED2CDC2CCC2488B18E7F88B92AE12A95F9
:1005A000F1F700C00E94370298B1916098B9A70195
:1005B0009601282BCA01B901CF3EA9F4CC24D62E2E
:1005C000E72EF82E88B18E7F88B93AE13A95F1F797
:1005D00000C00E94370298B1916098B9A7019601B6
:1005E000282BCA01B90128B1286028B92CEF2AB9F3
:1005F00023E024B9E7E5F2E03197F1F700C000000D
:10060000CF91FF90EF90DF90CF90089588B18860F0
:1006100088B988B1826088B988B1816088B988B1A9
:100620008F7E88B98FE39FE10197F1F700C000004A
:1006300088B1806188B988B1877F88B981E00E94DC
:10064000460290E0933040F488B18D7F88B988B13C
:10065000826088B99F5FF6CF88B1886088B90895B5
:10066000CF93C82F86E30E944602C130B1F028F034
:10067000C23019F1C33089F13FC088E40E945B02A7
:1006800080EF90E090931B0180931A0180E491E049
:1006900090931901809318012FC088E20E945B0299
:1006A00080E491E090931B0180931A0180EF90E029
:1006B00090931901809318011FC088E80E945B0283
:1006C00080EF90E090931B0180931A0180E491E009
:1006D00090931901809318010FC088EE0E945B026D
:1006E00080E491E090931B0180931A0180EF90E0E9
:1006F0009093190180931801CF910895AF92BF9202
:10070000CF92DF92EF92FF921F93CF93DF93182F38
:10071000B92E6A017B01C92FD82F88B1877F88B98C
:1007200088B18B7F88B98CE20E94700288B18460A6
:1007300088B98B2D0E947002812F0E94700221E0E7
:10074000C21AD108E108F108D701C601689415F86A
:10075000B695A795979587951694D1F7B1124FC086
:100760009C0121503109892BA9F190E188B18D7F3D
:1007700088B988B1826088B988B18D7F88B988B11D
:10078000826088B988B18D7F88B988B1826088B964
:1007900088B18D7F88B988B1826088B988B18D7F32
:1007A00088B988B1826088B988B18D7F88B988B1ED
:1007B000826088B988B18D7F88B988B1826088B934
:1007C00088B18D7F88B988B1826088B9915071F6FF
:1007D000C901C6CF8C2D8F739FEF980F882309F422
:1007E0003FC088B18D7F88B988B1826088B988B1EF
:1007F0008D7F88B988B1826088B9892FEDCF5C017F
:1008000021E0A21AB108892BE9F010E18C2F0E9497
:1008100070028D2F0E9470028C2F0E9470028D2F0B
:100820000E9470028C2F0E9470028D2F0E94700215
:100830008C2F0E9470028D2F0E947002115031F790
:10084000C501DDCF8C2D8F731FEF180F882341F06A
:100850008C2F0E9470028D2F0E947002812FF4CF86
:1008600088B1886088B9DF91CF911F91FF90EF9098
:10087000DF90CF90BF90AF9008950F931F93CF93C9
:10088000DF93C42FD52F162F072F98B1977F98B9D4
:1008900098B19B7F98B90E94700288B1846088B932
:1008A00085E08A95F1F70000802F0E94700285E0B4
:1008B0008A95F1F70000812F0E94700285E08A95E9
:1008C000F1F700008D2F0E94700285E08A95F1F704
:1008D00000008C2F0E94700288B1886088B9DF9177
:1008E000CF911F910F9108950F931F93CF93DF9393
:1008F0008B01FA01E90128B1277F28B9AC0160E03A
:1009000070E0DA0199278827AF0160E070E0482B9A
:10091000592B6A2B7B2B8AE20E943D04A80160E0E0
:1009200070E0BA0155274427CE01A0E0B0E0482B83
:10093000592B6A2B7B2B8BE20E943D0488B1886087
:1009400088B9DF91CF911F910F910895CF93DF93D5
:10095000EC01209118013091190121503109409189
:100960001A0150911B014150510960E070E080E094
:1009700090E00E94740420911A0130911B01A09113
:100980001801B09119010E94F20AAB01BC01CE011D
:100990000E947E03DF91CF910895CF93DF93992337
:1009A000C4F17723B4F120911A0130911B01821711
:1009B000930778F520911801309119016217730798
:1009C00040F5D52FC42F28B1277F28B920911801D1
:1009D000309119012150310940911A0150911B01A8
:1009E000415051090E94740488B1877F88B988B149
:1009F0008B7F88B98CE20E94700288B1846088B9CC
:100A00008D2F0E9470028C2F0E94700288B1886026
:100A100088B9DF91CF9108952F923F924F925F92C4
:100A20006F927F928F929F92AF92BF92CF92DF92FE
:100A3000EF92FF920F93CF93DF9300D000D0CDB70A
:100A4000DEB75C014B011A013A83298321E0E216EB
:100A500029F032E0E31609F448C0C6C0E12CF12CBD
:100A600088E0E816F1040CF0BFC01C821B822B81C9
:100A70003C8128303105ACF5E02FF0E0B097EE0F67
:100A8000FF1FEE0FFF1FEE0FFF1FEE0DFF1DE859BA
:100A9000FF4FE49187E090E0821B930BF0E002C0EF
:100AA000F595E7958A95E2F7E0FF0AC0A101B70145
:100AB000680D791DC9018A0D9B1D0E94CD040BC0D4
:100AC00049815A81B701680D791D8B819C818A0DFE
:100AD0009B1D0E94CD048B819C8101969C838B83FE
:100AE000C6CF9FEFE91AF90ABBCF612C712C20E128
:100AF000621671040CF078C0C12CD12C38E0C316FA
:100B0000D1040CF06DC0E02EF12C80E2E81AF1085F
:100B10009301220F331F3C832B83F701EE0FFF1F3E
:100B2000E295F295F07FFE27E07FFE27E20FF31FAC
:100B3000E05CFC4FE49187E090E02C014C185D08EC
:100B4000F0E0042C02C0F595E7950A94E2F7E0FF87
:100B50000AC0A101B301680D791DC6018A0D9B1D54
:100B60000E94CD040AC049815A81B301680D791DE4
:100B7000C6018A0D9B1D0E94CD048B819C8101962C
:100B8000F701EE0FFF1FE295F295F07FFE27E07F61
:100B9000FE27E80FF91FE05CFC4FE491F0E002C093
:100BA000F595E7954A94E2F7E0FF0BC0A101B30188
:100BB000680D791DC6018A0D9B1D08960E94CD0403
:100BC0000BC049815A81B301680D791DC6018A0D98
:100BD0009B1D08960E94CD049FEFC91AD90A8ECF9B
:100BE0002FEF621A720A83CF0F900F900F900F9021
:100BF000DF91CF910F91FF90EF90DF90CF90BF905A
:100C0000AF909F908F907F906F905F904F903F90AC
:100C10002F9008954F925F926F927F928F929F9242
:100C2000AF92BF92CF92DF92EF920F931F93CF9329
:100C3000DF936C014B013A01290158011E2DF5018A
:100C40000081002321F1C12FD0E0CC0FDD1FCC0F9C
:100C5000DD1FCC0FDD1F96012C0F3D1F80911A0167
:100C600090911B018217930728F48C0E9D1ECC24B3
:100C7000C394D12CE12E9201A301B401C6010E94BC
:100C80000C05CC0EDD1EFFEFAF1ABF0AD8CFDF91E7
:100C9000CF911F910F91EF90DF90CF90BF90AF90C9
:100CA0009F908F907F906F905F904F9008950E94DB
:100CB0003D020E9406032FEF83ED90E32150804018
:100CC0009040E1F700C0000083ED0E94790260933C
:100CD000140170931501809316019093170188B148
:100CE000877F88B981E00E9446028BEC0E94460211
:100CF00089E30E945B028CE20E945B0280E00E941A
:100D00005B0284E30E945B0282E00E945B028FEC44
:100D10000E94460280E00E945B0281EC0E945B021E
:100D200080E30E945B0288EE0E94460285E80E94F2
:100D30005B0280E00E945B0288E70E945B028AEE11
:100D40000E94460280E00E945B0280E00E945B02FB
:100D50008DEE0E94460284E60E945B0283E00E94C0
:100D60005B0282E10E945B0281E80E945B0287EFE6
:100D70000E94460280E20E945B0280EC0E944602D2
:100D800080E10E945B0281EC0E94460280E10E94A9
:100D90005B0285EC0E9446028EE30E945B0288E2C1
:100DA0000E945B0287EC0E94460286E80E945B027A
:100DB00080E00E9430038AE30E94460285E50E949B
:100DC0005B0281EB0E94460280E00E945B0288E1A8
:100DD0000E945B0286EB0E94460288E00E945B0252
:100DE00082E80E945B0287E20E945B0282EF0E941F
:100DF000460280E00E945B0286E20E94460281E099
:100E00000E945B0280EE0E9446028FE00E945B021D
:100E100081E30E945B028BE20E945B028CE00E94F5
:100E20005B028EE00E945B0288E00E945B028EE41F
:100E30000E945B0281EF0E945B0287E30E945B02DB
:100E400087E00E945B0280E10E945B0283E00E94D7
:100E50005B028EE00E945B0289E00E945B0280E000
:100E60000E945B0281EE0E94460280E00E945B02CB
:100E70008EE00E945B0284E10E945B0283E00E949C
:100E80005B0281E10E945B0287E00E945B0281E3DA
:100E90000E945B0281EC0E945B0288E40E945B027C
:100EA00088E00E945B028FE00E945B028CE00E945F
:100EB0005B0281E30E945B0286E30E945B028FE09B
:100EC0000E945B0281E10E9446022FEF82E597E0DB
:100ED000215080409040E1F700C0000089E20E946C
:100EE00046028CE20E945B022FEF82E597E02150E0
:100EF00080409040E1F700C000000895019769F438
:100F00006F3F7F4F51F422E030E043E050E062E079
:100F100070E08CE191E00E9409080895CF93DF937F
:100F200000D000D000D0CDB7DEB70E94570680E0D9
:100F300090E00E94A60481E00E943003EE24E39436
:100F400004E011E020E030E040EE5FEF6AE070E0A6
:100F50008AE090E00E940A068CE191E00E949F0ADC
:100F6000BE016F5F7F4F8CE191E00E947A0A2B8176
:100F70003C818091020190910301280F391F309329
:100F80000301209302014D815E81809100019091C7
:100F90000101841B950B9093010180930001332381
:100FA00024F4109203011092020120910201309169
:100FB00003012134314034F020E431E03093030167
:100FC00020930201992324F4109201011092000150
:100FD0008091000190910101813F910534F080EFF3
:100FE00090E0909301018093000160910001709165
:100FF00001014FEF5FEF80910201909103010E9488
:10100000CD04AECF6FEF7FEF81E090E00E947E07CE
:101010000895FC0171836083538342833583248365
:101020001782168281E090E093878287118610866E
:101030000895FC0123B1908141E050E0092E02C0E7
:10104000440F551F0A94E2F730E024233523092E7C
:1010500002C0359527950A94E2F7232B59F783B1FF
:10106000E28161E070E09B010E2E02C0220F331F6F
:101070000A94E2F7682F70E06223732302C075952B
:101080006795EA95E2F723B130E024233523092E52
:1010900002C0359527950A94E2F7232BA1F3CB01E3
:1010A000089524B181E090E002C0880F991F6A95ED
:1010B000E2F7922F982B94B995B18095892385B941
:1010C000089524B181E090E002C0880F991F6A95CD
:1010D000E2F7982F9095922394B995B1892B85B911
:1010E0000895EF92FF920F931F93CF93DF93EC013C
:1010F0008B016A817B810E94610868817981CE01C0
:101100000E9461088FEA94E00197F1F700C00000A7
:1011100068817981CE010E9451088FEA94E001979D
:10112000F1F700C000006A817B81CE010E94510866
:1011300095E39A95F1F7000068817981CE010E94CC
:10114000610843B1588181E090E09C01052E02C006
:10115000220F331F0A94E2F7842F90E08223932317
:1011600002C0959587955A95E2F7892B51F7EE24A1
:10117000E394F12C87E08F15A8F100FF06C06A8187
:101180007B81CE010E94610805C06A817B81CE010E
:101190000E94510883B1488121E030E0042E02C052
:1011A000220F331F0A94E2F790E082239323042E48
:1011B00002C0959587950A94E2F7892B59F383B17C
:1011C00090E082239323042E02C0959587950A947C
:1011D000E2F7892BA1F7802F8170E82615950795F6
:1011E000F394C8CFEE2031F06A817B81CE010E945A
:1011F000610805C06A817B81CE010E94510883B1DC
:10120000488121E030E0042E02C0220F331F0A94EF
:10121000E2F790E082239323042E02C095958795F0
:101220000A94E2F7892B59F383B190E08223932348
:10123000042E02C0959587950A94E2F7892BA1F7B1
:101240006A817B81CE010E94610887EC90E0019762
:10125000F1F700C0000083B16881798121E030E0BE
:10126000062E02C0220F331F0A94E2F790E0822379
:101270009323062E02C0959587950A94E2F7892B51
:1012800051F783B190E082239323062E02C09595F7
:1012900087950A94E2F7892BB1F043B1EA8181E0A6
:1012A00090E00E2E02C0880F991F0A94E2F750E0DA
:1012B0008423952302C095958795EA95E2F7892BBB
:1012C00021F481E003C081E001C080E08111D9CF29
:1012D000CE010E945108DF91CF911F910F91FF9095
:1012E000EF900895FF920F931F93CF93DF93EC013C
:1012F000688179810E9461086A817B81CE010E94A8
:10130000610887EC90E00197F1F700C0000043B15D
:10131000588181E090E09C01052E02C0220F331F0E
:101320000A94E2F7842F90E08223932302C09595DC
:1013300087955A95E2F7892B51F79AE19A95F1F73B
:1013400000C043B1588181E090E09C01052E02C0AD
:10135000220F331F0A94E2F7842F90E08223932315
:1013600002C0959587955A95E2F7892B51F300E0D5
:1013700010E0F12C083011056CF4CE010E94190820
:10138000002E02C0880F991F0A94E2F7F82A0F5F17
:101390001F4FF0CFCE010E941908CE010E941908FC
:1013A00068817981CE010E9451088F2DDF91CF9104
:1013B0001F910F91FF900895CF93DF93FC0120853B
:1013C0003185232B61F4EC0164EF70E00E94710819
:1013D000CE010E94720981E090E099878887DF91B1
:1013E000CF910895CF93DF93FC0122853385232B82
:1013F00061F4EC0165EF70E00E947108CE010E947B
:10140000720981E090E09B878A87DF91CF910895F0
:101410000F931F93CF93DF93EC018B018C819D8100
:10142000029719F4CE010E94F209B801CE010E9480
:101430007108CE010E9472098C819D81029719F476
:10144000CE010E94DC098E819F81892B31F08FE8CB
:1014500091E00197F1F700C00000DF91CF911F915B
:101460000F910895CF93DF93EC0160EF70E00E943D
:10147000080A81E090E09D838C83DF91CF910895ED
:101480000E947209082E000C990B0895CF93C62F65
:101490000E94400AC4FF12C028E030E0203131052C
:1014A0006CF441E050E0022E02C0440F551F0A9434
:1014B000E2F7842B952B2F5F3F4FF0CFCF9108950C
:1014C000CF93C62F0E94400AC5FF12C028E030E02B
:1014D000203131056CF441E050E0022E02C0440F8F
:1014E000551F0A94E2F7842B952B2F5F3F4FF0CFC7
:1014F000CF9108950F931F93CF93DF938C01EB014E
:101500006BEE70E00E947108C8010E947209C80168
:101510000E94400A99838883BC01C8010E94460A40
:101520009B838A8368817981C8010E94600A9D83B8
:101530008C83CE01DF91CF911F910F910895CF93AE
:10154000DF93EC01688179810E9461086A817B8167
:10155000CE010E9461082FEF89EF90E0215080407A
:101560009040E1F700C000006FEF70E0CE010E94F4
:101570007108CE010E9472092FEF89EF90E021508F
:1015800080409040E1F700C00000CE010E94720947
:10159000CE010E9472092FEF89EF90E02150804028
:1015A0009040E1F700C000008C819D81019721F4FB
:1015B000CE010E94320A03C0CE010E94DC098FE8EE
:1015C00091E00197F1F700C0000081E090E09F8377
:1015D0008E83DF91CF910895EE0FFF1F0590F49158
:1015E000E02D0994A29FB001B39FC001A39F700D8D
:1015F000811D1124911DB29F700D811D1124911D1B
:061600000895F894FFCFED
:101606007800A0004D61692056616E20416E682009
:041616003A2900006D
:00000001FF
