:1000000042C05CC05BC05AC059C058C057C056C03F
:1000100055C054C053C052C051C050C04FC04EC054
:100020004DC04CC04BC000000000000000000000AC
:1000300000000000000000000000000000000000C0
:10004000000000000000000000000FE00FF006308C
:10005000063007E007F006380618061806380FF0D5
:100060000FE0000000000000000007D80FF81C3867
:1000700038183000300030003008380C1C380FF0D1
:1000800007E00000000011241FBECFE5D4E0DEBF72
:10009000CDBF10E0A0E6B0E0EAEEF7E002C00590C8
:1000A0000D92A036B107D9F720E0A0E6B0E001C07C
:1000B0001D92A836B207E1F79AD295C3A1CF12BA22
:1000C0008FEF81BB8FE187BB0895C198C49AC29816
:1000D00082BBC398C39AC29A0895C19AC49AC2981F
:1000E00082BBC398C39AC29A089582BBC398C39A2D
:1000F0000895CF93DF9300D000D0CDB7DEB7C2987C
:10010000C1984C835B836A837983EFDFC19A8AE16C
:100110008A95F1F700C07981872FE7DF8AE18A9518
:10012000F1F700C06A81862FE0DF8AE18A95F1F756
:1001300000C05B81852FD9DF8AE18A95F1F700C085
:100140004C81842FD2DFC29A0F900F900F900F90A6
:10015000DF91CF910895CF93C82FC298C198C5DF82
:1001600011BAC19A25E82A95F1F70000C4983DE03C
:100170003A95F1F7000060B3C49A862F90E0A0E0B2
:10018000B0E0BA2FA92F982F8827C4984DE04A9540
:10019000F1F7000020B3C49A822BBA2FA92F982F11
:1001A0008827C4982DE02A95F1F7000020B3C49A5F
:1001B000822BBA2FA92F982F8827C4983DE03A9513
:1001C000F1F7000020B3C49ABC01CD01622BCF3EF1
:1001D00071F4B82FA72F962F8827C4984DE04A9521
:1001E000F1F7000020B3C49ABC01CD01622BC29A82
:1001F0002FEF21BB2FE739EA43E021503040404048
:10020000E1F700C00000CF910895C29AC39AC49A42
:10021000C0988FE99FE00197F1F700C00000C09AF5
:10022000C29881E052DF83E0C398C39A8150E1F71E
:10023000C29A0895CF93C82F86E347DFC13049F0B3
:1002400030F0C23041F0C330F1F488EE0FC088E4E2
:1002500003C088E20BC088E840DF80EF90E0909315
:1002600063008093620080E491E009C036DF80E49F
:1002700091E0909363008093620080EF90E0909310
:10028000610080936000CF910895CF92DF92EF924A
:10029000FF920F931F93CF93DF938B016A01E901C4
:1002A000C298AC0160E070E0BA0155274427E12C08
:1002B000F12C4C295D296E297F298AE21ADFA801D9
:1002C00060E070E0BA0155274427CE01A0E0B0E01D
:1002D000482B592B6A2B7B2B8BE20BDFC29ADF91C9
:1002E000CF911F910F91FF90EF90DF90CF900895E5
:1002F0008F929F92AF92BF92DF92EF92FF920F93F5
:100300001F93CF93DF9300D000D0CDB7DEB7E82E98
:10031000D92EC298C1988CE249835A836B837C831F
:10032000E4DEC19A8D2DE1DE8E2DDFDE49815A811A
:100330006B817C814A015B0181E0881A9108A108E8
:10034000B108D501C40126E0B695A7959795879584
:100350002A95D1F79C01DE14A1F08C0146C0C39808
:10036000C39AC398C39AC398C39AC398C39AC398AD
:10037000C39AC398C39AC398C39AC398C39A815027
:1003800071F72150310910F080E1E9CF482D4F730A
:10039000415028F0C398C39AC398C39AF9CFC29A20
:1003A0000F900F900F900F90DF91CF911F910F91B1
:1003B000FF90EF90DF90BF90AF909F908F90089547
:1003C0008D2D93DE8E2D91DE8D2D8FDE8E2D8DDE8B
:1003D0008D2D8BDE8E2D89DE8D2D87DE8E2D85DE9B
:1003E000FA94F110EDCF015011090115110519F022
:1003F00080E1F82EE5CF182D1F73115080F28D2D5E
:1004000074DE8E2D72DEF9CFCF93DF93EC01209155
:10041000600030916100215031094091620050919B
:1004200063004150510960E070E080E090E02DDF12
:100430002091620030916300A0916000B091610052
:10044000C6D1AB01BC01CE01DF91CF9151CFCF938B
:10045000DF939C0197FD2AC077FD28C08091620040
:10046000909163002817390708F5809160009091FA
:10047000610068177907D0F4EA01C901C298209198
:10048000600030916100215031094091620050912B
:10049000630041505109F9DEC298C1988CE225DE13
:1004A000C19A8D2F22DE8C2F20DEC29ADF91CF9150
:1004B00008952F923F924F925F926F927F928F9208
:1004C0009F92AF92BF92CF92DF92EF92FF920F93E3
:1004D0001F93CF93DF93CDB7DEB728970FB6F8946D
:1004E000DEBF0FBECDBF8D839E835A0149016F834E
:1004F000788720E2029F10011124C12CD12C210108
:1005000034E0531A88EF281A83E0380AC2018C0DB0
:100510009D1D9C012A5D3F4F3C832B83C1018C0DA7
:100520009D1D9C012A5D3F4F3A8329830D811E81C9
:1005300088E0E82EF12CEB81FC8184917E2C90E008
:100540000E2C02C0959587950A94E2F780FF02C0B1
:10055000A50101C0A4016F817885C80178DFE98118
:10056000FA81849190E002C0959587957A94E2F79C
:100570009801285F3F4F390180FF05C0A5016F81B9
:100580007885C90164DFA4016F817885C3015FDFCD
:1005900031E0E31AF1080F5F1F4FE114F10459F63F
:1005A0002F8138852F5F3F4F38872F8332E0C30E6E
:1005B000D11C80E2C816D10409F0A8CF28960FB646
:1005C000F894DEBF0FBECDBFDF91CF911F910F9189
:1005D000FF90EF90DF90CF90BF90AF909F908F9063
:1005E0007F906F905F904F903F902F90089567DDC0
:1005F0000CDE2FEF89E698E1215080409040E1F732
:1006000000C0000083EDA7DD609364007093650077
:100610008093660090936700C29881E056DD8BEC72
:1006200054DD89E35ADD8CE258DD80E056DD84E359
:1006300054DD82E052DD8FEC48DD80E04EDD81EC60
:100640004CDD80E34ADD88EE40DD85E846DD80E074
:1006500044DD88E742DD8AEE38DD80E03EDD80E083
:100660003CDD8DEE32DD84E638DD83E036DD82E18F
:1006700034DD81E832DD87EF28DD80E22EDD80EC9D
:1006800024DD83E22ADD81EC20DD80E126DD85ECBE
:100690001CDD8EE322DD88E220DD87EC16DD86E8B6
:1006A0001CDD80E0C7DD8AE310DD85E516DD81EB2A
:1006B0000CDD80E012DD88E110DD86EB06DD88E0F0
:1006C0000CDD82E80ADD87E208DD82EFFEDC80E0F7
:1006D00004DD86E2FADC81E000DD80EEF6DC8FE00E
:1006E000FCDC81E3FADC8BE2F8DC8CE0F6DC8EE00B
:1006F000F4DC88E0F2DC8EE4F0DC81EFEEDC87E312
:10070000ECDC87E0EADC80E1E8DC83E0E6DC8EE03C
:10071000E4DC89E0E2DC80E0E0DC81EED6DC80E055
:10072000DCDC8EE0DADC84E1D8DC83E0D6DC81E15D
:10073000D4DC87E0D2DC81E3D0DC81ECCEDC88E461
:10074000CCDC88E0CADC8FE0C8DC8CE0C6DC81E36E
:10075000C4DC86E3C2DC8FE0C0DC81E1B6DC2FE7DD
:1007600089EA93E0215080409040E1F700C000000A
:1007700089E2ABDC8CE2A9DC2FE789EA93E0215027
:1007800080409040E1F700C0000080E090E03CDE57
:1007900001E220EE37E040E058EF6AE070E08AE0E6
:1007A00090E087DE00E220EE37E040E058EF6AE0BC
:1007B00070E08AE190E07DDE02E220EE37E040E08A
:1007C00058EF6AE070E08AE290E073DEFFCFA29F0C
:1007D000B001B39FC001A39F01D0B29F700D811DD6
:0A07E0001124911D0895F894FFCF35
:00000001FF
