S00F0000544654393334312E7372656356
S1130000E5C1FFC1FEC1FDC1FCC1FBC1FAC1F9C11B
S1130010F8C1F7C1F6C1F5C1F4C1F3C1F2C1F1C130
S1130020F0C1EFC1EEC1DBC5DDC5DFC5E1C5E3C588
S1130030E5C5E7C500000000000000000404040456
S1130040000400000A0A0A00000000000A0A1F0A4D
S11300501F0A0A00040F140E051E040018190204D6
S1130060081303000C12140814120D000C040800E9
S11300700000000002040808080402000804020248
S1130080020408000004150E150400000004041FF7
S113009004040000000000000C0408000000001F1D
S11300A00000000000000000000C0C00000102042D
S11300B0081000000E11131519110E00040C04048D
S11300C004040E000E11010204081F001F020402A2
S11300D001110E0002060A121F0202001F101E0167
S11300E001110E000608101E11110E001F0102045A
S11300F0080808000E11110E11110E000E11110F37
S113010001020C000001020408100000000C0C00A5
S11301100C040800020408100804020000001F0078
S11301201F00000008040201020408000E1101026D
S1130130040004000E11010D15150E000E1111110D
S11301401F1111001E11111E11111E000E1110108D
S113015010110E001C12111111121C001F10101E80
S113016010101F001F10101E101010000E11101779
S113017011110E001111111F111111000E040404AC
S113018004040E000702020202120C0011121418D9
S1130190141211001010101010101F00111B15154F
S11301A01111110011111915131111000E11111152
S11301B011110E001E11111E101010000E1111113C
S11301C015120D001E11111E141211000F10100E25
S11301D001011E001F040404040404001111111180
S11301E011110E0011111111110A04001111111134
S11301F015150E0011110A040A1111001111110A2A
S1130200040404001F01020408101F000E0808085B
S113021008080E00110A1F041F0404000E02020243
S113022002020E00040A1100000000000000000099
S113023000001F00080400000000000000000E0180
S11302400F110F0010101E1111111E0000000E10CE
S113025010110E0001010D1311110F0000000E11F9
S11302601F100E000609081C08080800000F1111D1
S11302700F010E00101016191111110004000C04C6
S113028004040E000200060202120C0010101214E4
S1130290181412001808080808081C0000001A1591
S11302A015111100000016191111110000000E1192
S11302B011110E0000001E111E10100000000F117D
S11302C00F010100000016191010100000000E109C
S11302D00E011E0008081C08080906000000111180
S11302E011130D0000001111110A04000000111176
S11302F011150A000000110A040A1100000011116E
S11303000F010E0000001F0204081F00000000007F
S113031000000000000000000000000000000000D9
S113032000000000000000000000000000000000C9
S113033007C00FE00C60183018301830183018302F
S113034018300C600FE007C000000000000000003F
S1130350038003800180018001800180018001808D
S11303600180018003C003C0000000000000000001
S113037007F007F0014003600360063007F00FF850
S11303800C180C183E3E3E3E000000000000000029
S11303900FE00FF00630063007E007F006380618C5
S11303A0061806380FF00FE00000000000000000FF
S11303B007D80FF81C3838183000300030003008E7
S11303C0380C1C380FF007E00000000011241FBE99
S11303D0CFE5D4E0DEBFCDBF10E0A0E6B0E0E0E5BD
S11303E0FEE102C005900D92AE39B107D9F720E0C5
S11303F0AEE9B0E001C01D92A73AB207E1F7FED61C
S113040025CDFECD12BA8FEF81BB8FE187BB089556
S1130410C198C49AC29882BBC398C39AC29A0895D9
S1130420C19AC49AC29882BBC398C39AC29A0895C7
S113043082BBC398C39A0895CF93C82FC298C1981A
S1130440F7DF11BAC19A87EC90E00197F1F700C089
S11304500000C4989AE19A95F1F700C060B3C49A79
S1130460862F90E0A0E0B0E0BA2FA92F982F88271C
S1130470C498EAE1EA95F1F700C020B3C49A822B4C
S1130480BA2FA92F982F8827C498FAE1FA95F1F783
S113049000C020B3C49A822BBA2FA92F982F882783
S11304A0C4982AE12A95F1F700C020B3C49ABC018C
S11304B0CD01622BCF3E71F4B82FA72F962F88273A
S11304C0C498EAE1EA95F1F700C020B3C49ABC01EC
S11304D0CD01622BC29A2FEF21BBE7E5F2E0319701
S11304E0F1F700C00000CF910895C29AC39AC49A4C
S11304F0C0988FE39FE10197F1F700C00000C09A14
S1130500C29881E085DF83E0C398C39A8150E1F704
S1130510C29A0895CF93C82F86E37ADFC130A9F039
S113052028F0C23009F1C33071F13BC088E478DFB0
S113053080EF90E09093A5008093A40080E491E084
S11305409093A3008093A2002CC088E269DF80E42A
S113055091E09093A5008093A40080EF90E09093A5
S1130560A3008093A2001DC088E85ADF80EF90E0CA
S11305709093A5008093A40080E491E09093A3005D
S11305808093A2000EC088EE4BDF80E491E090934C
S1130590A5008093A40080EF90E09093A300809343
S11305A0A200CF9108958F929F92AF92BF92CF9263
S11305B0DF92EF92FF921F93CF93DF93182FF92EC0
S11305C04A015B01C92FD82FC298C1988CE230DF51
S11305D0C19A8F2D2DDF812F2BDF7501640181E0FE
S11305E0C81AD108E108F108D701C601689415F8C2
S11305F0B695A795979587951694D1F79C01C11741
S1130600A9F05C0139C080E1C398C39AC398C39A26
S1130610C398C39AC398C39AC398C39AC398C39AF6
S1130620C398C39AC398C39A815071F72150310972
S113063050F79C2D9F738FEF890F992359F1C3981D
S1130640C39AC398C39A8150D0F724C010E18C2F69
S1130650EFDE8D2FEDDE8C2FEBDE8D2FE9DE8C2F80
S1130660E7DE8D2FE5DE8C2FE3DE8D2FE1DE1150EA
S113067071F781E0A81AB108A114B10439F78C2DDF
S11306808F7341F0C82E8C2FD3DE8D2FD1DECA9408
S1130690C110F9CFC29ADF91CF911F91FF90EF90D3
S11306A0DF90CF90BF90AF909F908F9008950F935D
S11306B01F93CF93DF93C42FD52F162F072FC298E4
S11306C0C198B6DEC19A85E08A95F1F70000802FC3
S11306D0AFDE85E08A95F1F70000812FA9DE85E081
S11306E08A95F1F700008D2FA3DE85E08A95F1F756
S11306F000008C2F9DDEC29ADF91CF911F910F9144
S113070008950F931F93CF93DF938B01FA01E901AF
S1130710C298AC0160E070E0DA0199278827AF0144
S113072060E070E0482B592B6A2B7B2B8AE2BFDFF9
S1130730A80160E070E0BA0155274427CE01A0E08B
S1130740B0E0482B592B6A2B7B2B8BE2B0DFC29A8B
S1130750DF91CF911F910F910895CF93DF93EC0117
S11307602091A2003091A300215031094091A400AE
S11307705091A5004150510960E070E080E090E0A4
S1130780C0DF2091A4003091A500A091A200B091F7
S1130790A300BFD7AB01BC01CE0105DFDF91CF9130
S11307A00895AF92BF92CF92DF92EF92FF920F9390
S11307B01F93CF93DF937C015B016A01E9019801E8
S11307C0AE01B601C5019DDF9E012F5F3F4F2A197F
S11307D03B090F5F1F4FD801AC19BD099AD7AB0174
S11307E0BC01C701E0DEDF91CF911F910F91FF9013
S11307F0EF90DF90CF90BF90AF900895CF93DF93A9
S1130800992354F1772344F12091A4003091A50059
S11308108217930708F52091A2003091A300621774
S11308207307D0F4D52FC42FC2982091A200309121
S1130830A300215031094091A4005091A5004150DA
S113084051095FDFC298C1988CE2F2DDC19A8D2F05
S1130850EFDD8C2FEDDDC29ADF91CF9108952F92B9
S11308603F924F925F926F927F928F929F92AF923C
S1130870BF92CF92DF92EF92FF920F931F93CF9389
S1130880DF9300D000D0CDB7DEB79A8389837C8311
S11308906B837A016901C801841B950B5C0122F406
S11308A0AA24BB24A81AB90AC6012B813C81821B45
S11308B0930B4C0122F488249924881A990A8A14E7
S11308C09B045CF49C2D8D2D6801092F182F9B81AE
S11308D08C81FC82EB82E92EF82E8B819C81C816D8
S11308E0D906B0F59E2D8F2D7801092F182F9B81E5
S11308F08C81DC82CB82C92ED82E2AC02B813C81EC
S1130900C216D30608F43EC00FEF1FEF02C001E089
S113091010E08A149B043CF449815A816B817C81E8
S1130920C7016CDF06C049815A81B7018B819C8164
S113093065DF641875081AF4E00EF11E31018B812D
S11309409C8101969C838B83C816D90610F71AC024
S113095016012B813C81221A330AC8018E199F0982
S11309602C0122F444245524481A590A3101332015
S11309701CF43FEF631A730A75946794E016F1064A
S113098030F2BCCF0F900F900F900F90DF91CF916A
S11309901F910F91FF90EF90DF90CF90BF90AF9099
S11309A09F908F907F906F905F904F903F902F908B
S11309B008958F929F92AF92BF92CF92DF92EF925F
S11309C0FF920F931F93CF93DF93EC017B014A01B6
S11309D0590168018A0143DF86019501A401B5012B
S11309E0CE013DDF9701A401B701CE0138DF9501A7
S11309F0A601B701CE0133DFDF91CF911F910F9193
S1130A00FF90EF90DF90CF90BF90AF909F908F902A
S1130A1008952F923F924F925F926F927F928F929E
S1130A209F92AF92BF92CF92DF92EF92FF920F9379
S1130A301F93CF93DF9300D000D000D0CDB7DEB7A3
S1130A406C014B015E834D833C832B8381E090E0FA
S1130A507C01E41AF50A1A01319421943108220C1C
S1130A60331CBA01680D791DA901C601C7DEB401A2
S1130A702D813E81621B730B4B815C81C601BEDEFE
S1130A804B815C81B4018D819E818C0D9D1DB6DEF0
S1130A904B815C81B401C6012D813E81821B930B85
S1130AA0ADDE8D819E81181619060CF06DC000E034
S1130AB010E066246394712CFF205CF02D813E814C
S1130AC0215031093E832D8332E0230E311CE20C88
S1130AD0F31C0F5F1F4F82E0680E711CE60CF71CBD
S1130AE05801AC0CBD1C4B815C812D813E81280DCD
S1130AF0391D3A832983B901C50180DE2601401AD4
S1130B00510A4B815C8169817A81C20177DE4B8114
S1130B105C81C4012D813E81821B930B9A8389835E
S1130B20BC01C5016BDE4B815C8169817A81C201A4
S1130B3065DE5801A80CB91C4B815C81B5014D8060
S1130B405E804C0C5D1CC20159DE4B815C81B50199
S1130B50C6012D813E81821B930B9A8389834EDECD
S1130B605401A01AB10A4B815C81B501C20146DE71
S1130B704B815C81B50189819A8140DE8D819E81A2
S1130B80081719070CF498CF26960FB6F894DEBF11
S1130B900FBECDBFDF91CF911F910F91FF90EF90CA
S1130BA0DF90CF90BF90AF909F908F907F906F9089
S1130BB05F904F903F902F90089513D68770907850
S1130BC0992324F40197886F9F6F01969927FC015C
S1130BD03197E730F105C0F4ED5EFF4F09948FE1E2
S1130BE090E0089580E098EF089580EE97E00895EE
S1130BF08FEF97E008958FE198EF089580EE9FEFCF
S1130C0008958FEF9FEF089580E090E008953F925C
S1130C104F925F926F927F928F929F92AF92BF9208
S1130C20CF92DF92EF92FF920F931F93CF93DF93B4
S1130C3000D000D000D0CDB7DEB79A8389835A01A3
S1130C40290121E0E21689F032E0E312A1C06B0130
S1130C50E0E20E9FC00111249C01245F3040490151
S1130C60CB0140969C838B8385C06B01E02EF12CD5
S1130C70C701880F991F880F991F880F991FFC01BE
S1130C80EC5CF0407F014B01F8E08F0E911C29C011
S1130C90F701849190E00B8002C0959587950A94A2
S1130CA0E2F780FF05C0A501B601C801A7DD04C0B5
S1130CB0A201B601C801A2DD2B813C81215031097A
S1130CC03C832B830F5F1F4F2F3F3F4F09F79FEF4D
S1130CD0C91AD90AEFEFEE1AFE0A8C149D0409F41E
S1130CE057C009811A8127E030E03C832B83D0CFA1
S1130CF0F40184913D8090E0032C02C09595879582
S1130D000A94E2F780FF05C0A501B601C70176DDAC
S1130D1004C0A201B601C70171DDF301849190E022
S1130D2002C0959587953A94E2F780FF05C0A50126
S1130D30B601C80163DD04C0A201B601C8015EDDCD
S1130D402D813E81215031093E832D830F5F1F4F3A
S1130D503FEFE31AF30A8D819E81019649F6FFEF76
S1130D60CF1ADF0A22E0820E911C8B819C81C81667
S1130D70D90671F034019FEF691A790AE980FA8083
S1130D808701085F1F4FE7E0F0E0FE83ED83B0CFFB
S1130D9026960FB6F894DEBF0FBECDBFDF91CF917C
S1130DA01F910F91FF90EF90DF90CF90BF90AF9085
S1130DB09F908F907F906F905F904F903F90089599
S1130DC04F925F926F927F928F929F92AF92BF9257
S1130DD0CF92DF92EF920F931F93CF93DF93EC01A7
S1130DE04B012A013901F8011E2D0081002339F13C
S1130DF0CE2CD12CCC0CDD1CCC0CDD1CCC0CDD1C85
S1130E005F018FEFA81AB80A2091A4003091A500C1
S1130E10C6018C0F9D1F2817390720F48C0C9D1CCC
S1130E20C1E0D0E0E12E9301A201B401CE01EFDED6
S1130E30CC0DDD1DF50101915F010111E5CFDF91BD
S1130E40CF911F910F91EF90DF90CF90BF90AF9013
S1130E509F908F907F906F905F904F9008950F9325
S1130E601F93CF93DF93CDB7DEB72A970FB6F894CD
S1130E70DEBF0FBECDBFC6DA38DB2FEF83ED90E3C4
S1130E80215080409040E1F700C0000083EDD4DAA7
S1130E9060939E0070939F008093A0009093A100A4
S1130EA0C29861E070E080E023D18091A1008F932B
S1130EB08091A0008F9380919F008F9380919E00DA
S1130EC08F9384E690E09F938F938E010F5F1F4F63
S1130ED01F930F9395D4C80183D181E099DA8BECE9
S1130EE097DA89E39DDA8CE29BDA80E099DA84E38D
S1130EF097DA82E095DA8FEC8BDA80E091DA81EC94
S1130F008FDA80E38DDA88EE83DA85E889DA80E0A7
S1130F1087DA88E785DA8AEE7BDA80E081DA80E0B6
S1130F207FDA8DEE75DA84E67BDA83E079DA82E1C2
S1130F3077DA81E875DA87EF6BDA80E271DA80ECD0
S1130F4067DA80E16DDA81EC63DA80E169DA85ECF5
S1130F505FDA8EE365DA88E263DA87EC59DA86E8E9
S1130F605FDA80E0D7DA8AE353DA85E559DA81EB90
S1130F704FDA80E055DA88E153DA86EB49DA88E023
S1130F804FDA82E84DDA87E24BDA82EF41DA80E029
S1130F9047DA86E23DDA81E043DA80EE39DA8FE03F
S1130FA03FDA81E33DDA8BE23BDA8CE039DA8EE03A
S1130FB037DA88E035DA8EE433DA81EF31DA87E341
S1130FC02FDA87E02DDA80E12BDA83E029DA8EE06C
S1130FD027DA89E025DA80E023DA81EE19DA80E085
S1130FE01FDA8EE01DDA84E11BDA83E019DA81E18D
S1130FF017DA87E015DA81E313DA81EC11DA88E491
S11310000FDA88E00DDA8FE00BDA8CE009DA81E39D
S113101007DA86E305DA8FE003DA81E1F9D92FEF05
S113102082E597E0215080409040E1F700C0000045
S113103089E2EED98CE2F4D92FEF82E597E02150D2
S113104080409040E1F700C000000FB6F894DEBF86
S11310500FBECDBF2A960FB6F894DEBF0FBECDBF2C
S1131060DF91CF911F910F910895CF93C82F809155
S1131070A60084608093A6006EE42AD387EC90E0F7
S11310800197F1F700C00000C295C07F8091A600CF
S11310906EE48C2B1DD38091A6008B7F8093A600D9
S11310A06EE416D387EC90E00197F1F700C00000DE
S11310B0CF910895CF93C82F611108C08091A600E5
S11310C08E7F8093A6006EE403D307C08091A600B0
S11310D081608093A6006EE4FBD28C2F82958F7082
S11310E0C4DF8C2FC2DFCF91089561E0E3DF089560
S11310F06130710561F038F06230710569F0633078
S1131100710579F0089560E08068D4DF0895805C0B
S113111060E08068CFDF08958C5E60E08068CADF9D
S113112008958C5A60E08068C5DF08958FE59AEED3
S11311300197F1F700C0000083E097DF8FE79EE39B
S11311400197F1F700C0000083E08FDF8FE891E0A2
S11311500197F1F700C0000083E087DF8FE99FE08B
S11311600197F1F700C0000082E07FDF8FE99FE084
S11311700197F1F700C0000060E088E29BDF8FE98F
S11311809FE00197F1F700C0000060E08CE092DF7F
S11311908FE99FE00197F1F700C0000060E086E06E
S11311A089DF8FE99FE00197F1F700C0000080918B
S11311B0A60088608093A6006EE48AD28091A6007F
S11311C08D7F8093A6006EE483D2089560E081E071
S11311D071DF8FE697E10197F1F700C000000895F1
S11311E0CF93DF93EC018881882329F021967DDF5A
S11311F089918111FCCFDF91CF91089559D296DF67
S1131200E5DF60E070E080E073DF8CE690E0E8DF2B
S113121026DE80E098EFA1DA2FEF89E698E12150ED
S113122080409040E1F700C000008FE190E095DA43
S11312302FEF89E698E1215080409040E1F700C00B
S1131240000080EE97E089DA2FEF89E698E12150DB
S113125080409040E1F700C000008FEF97E07DDA16
S11312602FEF89E698E1215080409040E1F700C0DB
S113127000008FE198EF71DA2FEF89E698E12150B1
S113128080409040E1F700C0000080EE9FEF65DAF7
S11312902FEF89E698E1215080409040E1F700C0AB
S11312A000008FEF9FEF59DA2FEF89E698E1215084
S11312B080409040E1F700C0000080E090E04DDA0B
S11312C02FEF89E698E1215080409040E1F700C07B
S11312D00000C8E0D0E071DC0FE910E027E730E05F
S11312E040E050E060E070E05CDA2FEF81EE94E0E3
S11312F0215080409040E1F700C000005EDC2FEEFA
S113130030E040E050E068E770E04BDA2FEF81EE28
S113131094E0215080409040E1F700C000004DDC93
S11313200FE311E027E730E040EA50E060E070E0CE
S113133038DA2FEF81EE94E0215080409040E1F7BD
S113134000C000003ADC2FEE30E040EA50E068E7ED
S113135070E027DA2FEF81EE94E021508040904036
S1131360E1F700C00000219709F0B5CF80E090E0DC
S1131370F4D9C8E9DAE36894CC24C6F8DD24D3941C
S11313800F2EF0EFEF2EF12CF02D17DC8C0129D26B
S11313905C0127D2FC01C501B601A8D19C01CF0193
S11313A0B701A4D1A801B90129DA219771F780E026
S11313B090E0D3D9C0E0D0E000DC0FE311E09E015F
S11313C040E050E0BE014BDA2196C03FD105A1F7C1
S11313D02FEF89E698E1215080409040E1F700C06A
S11313E0000080E090E0B9D9C8EED3E06894882486
S11313F086F8992493940F2EF0EF6F2E712CF02D14
S1131400F0D18C01EED15C01ECD16C01EAD17C010C
S1131410D4DBFC01C801B40169D18C01C501B3015D
S113142065D19C01C601B40161D16C01C701B3014E
S11314305DD1A601BC01CF0112DA219709F72FEF84
S113144089E698E1215080409040E1F700C0000017
S113145080E090E082D9C0E0D0E00F2EFFE3CF2EF1
S1131460DD24D394F02D0F2EFFEEEF2EF12CF02D72
S1131470A4DB86010C1B1D0B97012C1B3D0BAE013D
S1131480BE0197DA2196C837D10591F72FEF89E687
S113149098E1215080409040E1F700C0000080E0D6
S11314A090E05BD9C0EDD7E00F2EF8E1CF2EDD241C
S11314B0D394F02D0F2EF8ECEF2EF12CF02D7DDBD4
S11314C08C018FD15C018DD19C01C501B6010ED177
S11314D0FC017496C901B70109D1980144E150E0B7
S11314E0BF01449696DA219751F72FEF89E698E1E8
S11314F0215080409040E1F700C0000080E090E07F
S11315002CD96894EE24E1F801E220EE37E040E0C3
S113151058EF6AE070E08AE090E079DB02E220EEC6
S113152037E040E058EF6AE070E08AE190E06FDB7A
S113153003E220EE37E040E058EF6AE070E08AE230
S113154090E065DB04E220EE37E040E058EF6AE02B
S113155070E08AE390E05BDB05E220EE37E040E0F8
S113156058EF6AE070E08AE490E051DB01E220EE9B
S113157037E040E058EF6AE170E08AE090E047DB52
S113158002E220EE37E040E058EF6AE170E08AE1E1
S113159090E03DDB03E220EE37E040E058EF6AE103
S11315A070E08AE290E033DB04E220EE37E040E0D2
S11315B058EF6AE170E08AE390E029DB05E220EE6F
S11315C037E040E058EF6AE170E08AE490E01FDB26
S11315D02FEF83ED90E3215080409040E1F700C06D
S11315E0000080E090E0B9D8EE24E3940DE710E029
S11315F020EE37E040E058EF61E070E081E090E0F9
S1131600DFDB08E810E020EE37E040E058EF69E067
S113161070E081E090E0D4DB03E910E020EE37E0F5
S113162040E058EF61E170E08AE090E0C9DB2FEF21
S113163083ED90E3215080409040E1F700C000002A
S113164080E090E08AD80F2EF4E1CF2ED12CF02D3B
S1131650CFE0D0E0C6D08C01C4D07C01C2D09C01C4
S113166001701078112334F4015011090E6F1F6FAB
S11316700F5F1F4F0F5DC701B60138D0FC01E29523
S1131680F295F07FFE27E07FFE27C901BE012ED030
S11316906894EE24E1F820E030E040EE57E0BF012A
S11316A082959295907F9827807F9827B0DAD2CF41
S11316B088E480B9089584EA86BF06B607FEFDCFA4
S11316C0089583B984E886BF06B607FEFDCF089562
S11316D0CF93DF93C82FD62FEEDF8D2FF2DF8C2F21
S11316E0F0DF84E986BFDF91CF91089597FB072E41
S11316F016F4009406D077FD08D017D007FC05D067
S11317003EF4909581959F4F0895709561957F4F14
S11317100895A29FB001B39FC001A39F01D0B29FBF
S1131720700D811D1124911D0895AA1BBB1B51E14D
S113173007C0AA1FBB1FA617B70710F0A61BB70B3D
S1131740881F991F5A95A9F780959095BC01CD01E2
S113175008958F929F92AF92BF92CF92DF92EF92B1
S1131760FF92CF93DF93EC01688179818A819B8119
S1131770611571058105910521F464E279ED8BE52C
S113178097E02DE133EF41E050E0DBD249015A010B
S11317909B01AC01A7EAB1E4F0D26B017C01ACEE91
S11317A0B4EFA5019401F5D2DC01CB018C0D9D1D94
S11317B0AE1DBF1DB7FF03C00197A109B0488883C0
S11317C09983AA83BB839F77DF91CF91FF90EF909A
S11317D0DF90CF90BF90AF909F908F900895B9DF26
S11317E0089580E690E0B5DF0895A0E0B0E080932E
S11317F0600090936100A0936200B0936300089529
S1131800AEE0B0E0E5E0FCE0D6C20D891E8986E0DA
S11318108C831A8309838FEF9FE79E838D83AE01A8
S1131820475E5F4F6F89788DCE01019608D0EF81B6
S1131830F885E00FF11F10822E96E4E0D8C2ABE0E9
S1131840B0E0E4E2FCE0A9C26C017B018A01FC0186
S113185017821682838181FFBFC1CE0101963C01AC
S1131860F6019381F70193FD859193FF81917F01A7
S1131870882309F4ADC1853239F493FD859193FF32
S113188081917F01853221F4B60190E0C0D1E8CF87
S1131890912C212C312CFFE1F315D8F08B3279F007
S11318A038F4803279F08332A1F4232D20611DC0F5
S11318B08D3261F0803369F4232D216016C0832DAD
S11318C08260382EE32DE4603E2E2AC0F32DF860AA
S11318D01DC037FC2DC020ED280F2A3040F08E3279
S11318E0B9F436FC75C1232D2064322E19C036FE9E
S11318F006C08AE0989E200D1124922E11C0EAE0C1
S11319002E9E200D1124222EF32DF0623F2E08C0AE
S11319108C3621F4832D8068382E02C0883641F439
S1131920F70193FD859193FF81917F018111B3CFDD
S1131930982F9F7D9554933028F40C5F1F4F9FE39D
S113194099830DC0833631F0833771F0833509F004
S113195055C020C0F801808189830E5F1F4F882401
S11319608394912C530112C02801F2E04F0E511CB4
S1131970F801A080B18036FE03C0692D70E002C07A
S11319806FEF7FEFC50138D14C018201F32DFF7752
S11319903F2E15C0280122E0420E511CF801A08000
S11319A0B18036FE03C0692D70E002C06FEF7FEF97
S11319B0C50117D14C01F32DF0683F2E820133FC91
S11319C019C0822D90E088169906A0F4B60180E231
S11319D090E01DD12A94F5CFF50137FC859137FEAF
S11319E081915F01B60190E012D121102A9421E087
S11319F0821A91088114910479F7E1C0843611F0B8
S1131A00893639F5F80137FE07C06081718182811A
S1131A1093810C5F1F4F08C060817181072E000CF9
S1131A20880B990B0E5F1F4FF32DFF763F2E97FF08
S1131A3009C090958095709561957F4F8F4F9F4F0A
S1131A40F0683F2E2AE030E0A3011DD1882E8618CD
S1131A5044C0853731F4232D2F7EB22E2AE030E0A6
S1131A6025C0932D997FB92E8F36C1F018F488358F
S1131A7079F0AEC0803719F0883721F0A9C0E92F7A
S1131A80E061BE2EB4FE0DC0FB2DF460BF2E09C074
S1131A9034FE0AC0292F2660B22E06C028E030E0AA
S1131AA005C020E130E002C020E132E0F801B7FED9
S1131AB007C060817181828193810C5F1F4F06C0D2
S1131AC06081718180E090E00E5F1F4FA301DBD045
S1131AD0882E8618FB2DFF773F2E36FE0DC0232D52
S1131AE02E7FA22E891458F434FE0BC032FC09C098
S1131AF0832D8E7EA82E05C0B82CA32C03C0B82C31
S1131B0001C0B92CA4FE0FC0FE01E80DF11D8081B7
S1131B10803321F49A2D997EA92E09C0A2FE06C015
S1131B20B394B39404C08A2D867809F0B394A3FCCB
S1131B3010C0A0FE06C0B21480F4280C922C9B188E
S1131B400DC0B21458F4B60180E290E060D0B394B2
S1131B50F8CFB21418F42B1802C0982C212CA4FE30
S1131B600FC0B60180E390E052D0A2FE16C0A1FCE3
S1131B7003C088E790E002C088E590E0B6010CC09D
S1131B808A2D867851F0A1FE02C08BE201C080E26A
S1131B90A7FC8DE2B60190E03AD0891430F4B60186
S1131BA080E390E034D09A94F8CF8A94F301E80D5E
S1131BB0F11D8081B60190E02AD08110F6CF222059
S1131BC009F44ECEB60180E290E021D02A94F7CFFA
S1131BD0F6018681978102C08FEF9FEF2B96E2E199
S1131BE0F8C0FC010590615070400110D8F7809551
S1131BF090958E0F9F1F0895FC01615070400190D5
S1131C000110D8F7809590958E0F9F1F08950F931C
S1131C101F93CF93DF93FB01238121FD03C08FEF3B
S1131C209FEF2CC022FF16C0468157812481358145
S1131C304217530744F4A081B1819D012F5F3F4FA8
S1131C40318320838C93268137812F5F3F4F3783E5
S1131C50268314C08B01EC01FB010084F185E02D87
S1131C600995892BE1F6D80116968D919C911797C9
S1131C70019617969C938E931697CE01DF91CF9180
S1131C801F910F910895FA01AA27283051F12031AC
S1131C9081F1E8946F936E7F6E5F7F4F8F4F9F4FFC
S1131CA0AF4FB1E03ED0B4E03CD0670F781F891F3E
S1131CB09A1FA11D680F791F8A1F911DA11D6A0F0C
S1131CC0711D811D911DA11D20D009F468943F91BF
S1131CD02AE0269F11243019305D3193DEF6CF01BE
S1131CE00895462F4770405D4193B3E00FD0C9F784
S1131CF0F6CF462F4F70405D4A3318F0495D31FDF1
S1131D004052419302D0A9F7EACFB4E0A695979543
S1131D10879577956795BA95C9F700976105710519
S1131D2008959B01AC010A2E069457954795379563
S1131D302795BA95C9F7620F731F841F951FA01DBD
S1131D400895052E97FB16F400940FD057FD05D087
S1131D505BD007FC02D046F408C0509540953095FE
S1131D6021953F4F4F4F5F4F089590958095709503
S1131D7061957F4F8F4F9F4F0895CBDCA59F900DAA
S1131D80B49F900DA49F800D911D11240895B7FF59
S1131D90F4CFF3DF821B930B08952F923F924F925F
S1131DA05F926F927F928F929F92AF92BF92CF92E7
S1131DB0DF92EF92FF920F931F93CF93DF93CDB7F0
S1131DC0DEB7CA1BDB0B0FB6F894DEBF0FBECDBF68
S1131DD009942A88398848885F846E847D848C8439
S1131DE09B84AA84B984C884DF80EE80FD800C8142
S1131DF01B81AA81B981CE0FD11D0FB6F894DEBF25
S1131E000FBECDBFED010895A1E21A2EAA1BBB1B84
S1131E10FD010DC0AA1FBB1FEE1FFF1FA217B307B2
S1131E20E407F50720F0A21BB30BE40BF50B661FC8
S1131E30771F881F991F1A9469F76095709580958C
S1131E4090959B01AC01BD01CF010895F894FFCF9B
S1131E500100000030782530386C58005445535444
S1131E602054465420494C493933343100313233FB
S1131E7034354142434445004544434142353433BB
S1111E803231004142434445616263646500AF
S9030000FC
