S0100000746573745F4C69622E73726563DE
S11300000C9434000C9451000C9451000C94510045
S11300100C9451000C9451000C9451000C94510018
S11300200C9451000C9451000C9451000C94510008
S11300300C9451000C9451000C9451000C945100F8
S11300400C9451000C9482000C9453000C945100B5
S11300500C9451000C9451000C9451000C945100D8
S11300600C9451000C94510011241FBECFEFD8E022
S1130070DEBFCDBF21E0A0E0B1E001C01D92A338F6
S1130080B207E1F711E0A0E0B1E0E8E2F1E002C07C
S113009005900D92A030B107D9F70E9491000C94FD
S11300A092000C9400001F920F920FB60F9211242D
S11300B08F939F93EF93FF93E0910001F0910101DF
S11300C08091C600ED5FFE4F808380910001909186
S11300D00101019690930101809300018091000138
S11300E0909101018038910520F010920101109245
S11300F00001FF91EF919F918F910F900FBE0F9090
S11301001F9018951F920F920FB60F9211248F9380
S11301108EB5809302018F910F900FBE0F901F90A8
S10B01201895FFCFF894FFCFFE
S9030000FC
